{
  "contractName": "TicTacToeState",
  "abi": [
    {
      "constant": true,
      "inputs": [
        {
          "name": "_state",
          "type": "bytes"
        }
      ],
      "name": "positionType",
      "outputs": [
        {
          "name": "_positionType",
          "type": "TicTacToeState.PositionType"
        }
      ],
      "payable": false,
      "stateMutability": "pure",
      "type": "function"
    },
    {
      "constant": true,
      "inputs": [
        {
          "name": "_state",
          "type": "bytes"
        }
      ],
      "name": "stake",
      "outputs": [
        {
          "name": "_stake",
          "type": "uint256"
        }
      ],
      "payable": false,
      "stateMutability": "pure",
      "type": "function"
    },
    {
      "constant": true,
      "inputs": [
        {
          "name": "_state",
          "type": "bytes"
        }
      ],
      "name": "noughts",
      "outputs": [
        {
          "name": "_noughts",
          "type": "uint16"
        }
      ],
      "payable": false,
      "stateMutability": "pure",
      "type": "function"
    },
    {
      "constant": true,
      "inputs": [
        {
          "name": "_state",
          "type": "bytes"
        }
      ],
      "name": "crosses",
      "outputs": [
        {
          "name": "_crosses",
          "type": "uint16"
        }
      ],
      "payable": false,
      "stateMutability": "pure",
      "type": "function"
    },
    {
      "constant": true,
      "inputs": [
        {
          "name": "_state",
          "type": "bytes"
        }
      ],
      "name": "aResolution",
      "outputs": [
        {
          "name": "_aBal",
          "type": "uint256"
        }
      ],
      "payable": false,
      "stateMutability": "pure",
      "type": "function"
    },
    {
      "constant": true,
      "inputs": [
        {
          "name": "_state",
          "type": "bytes"
        }
      ],
      "name": "bResolution",
      "outputs": [
        {
          "name": "_bBal",
          "type": "uint256"
        }
      ],
      "payable": false,
      "stateMutability": "pure",
      "type": "function"
    }
  ],
  "bytecode": "0x61092d610030600b82828239805160001a6073146000811461002057610022565bfe5b5030600052607381538281f30073000000000000000000000000000000000000000030146080604052600436106100755763ffffffff60e060020a6000350416632d1e0c02811461007a57806349fca72e146100d85780634c291ecd1461013b5780634e77b063146101875780638a0cc0ed146101d3578063bc53a0b914610243575b600080fd5b6040805160206004803580820135601f81018490048402850184019095528484526100c694369492936024939284019190819084018382808284375094975061028f9650505050505050565b60408051918252519081900360200190f35b6040805160206004803580820135601f81018490048402850184019095528484526101249436949293602493928401919081908401838280828437509497506103809650505050505050565b6040805161ffff9092168252519081900360200190f35b6040805160206004803580820135601f81018490048402850184019095528484526100c69436949293602493928401919081908401838280828437509497506104719650505050505050565b6040805160206004803580820135601f81018490048402850184019095528484526100c69436949293602493928401919081908401838280828437509497506105d29650505050505050565b6040805160206004803580820135601f810184900484028501840190955284845261021f9436949293602493928401919081908401838280828437509497506107229650505050505050565b6040518082600481111561022f57fe5b60ff16815260200191505060405180910390f35b6040805160206004803580820135601f81018490048402850184019095528484526101249436949293602493928401919081908401838280828437509497506108109650505050505050565b60008073__State_________________________________63c586f63b846040518263ffffffff1660e060020a0281526004018080602001828103825283818151815260200191508051906020019080838360005b838110156102fc5781810151838201526020016102e4565b50505050905090810190601f1680156103295780820380516001836020036101000a031916815260200191505b509250505060206040518083038186803b15801561034657600080fd5b505af415801561035a573d6000803e3d6000fd5b505050506040513d602081101561037057600080fd5b5051929092016020015192915050565b60008073__State_________________________________63c586f63b846040518263ffffffff1660e060020a0281526004018080602001828103825283818151815260200191508051906020019080838360005b838110156103ed5781810151838201526020016103d5565b50505050905090810190601f16801561041a5780820380516001836020036101000a031916815260200191505b509250505060206040518083038186803b15801561043757600080fd5b505af415801561044b573d6000803e3d6000fd5b505050506040513d602081101561046157600080fd5b5051929092016060015192915050565b600073__State_________________________________632e6f220c836040518263ffffffff1660e060020a0281526004018080602001828103825283818151815260200191508051906020019080838360005b838110156104dd5781810151838201526020016104c5565b50505050905090810190601f16801561050a5780820380516001836020036101000a031916815260200191505b509250505060006040518083038186803b15801561052757600080fd5b505af415801561053b573d6000803e3d6000fd5b505050506040513d6000823e601f3d908101601f19168201604052602081101561056457600080fd5b81019080805164010000000081111561057c57600080fd5b8201602081018481111561058f57600080fd5b81518560208202830111640100000000821117156105ac57600080fd5b5050805190935060009250821090506105c157fe5b906020019060200201519050919050565b600073__State_________________________________632e6f220c836040518263ffffffff1660e060020a0281526004018080602001828103825283818151815260200191508051906020019080838360005b8381101561063e578181015183820152602001610626565b50505050905090810190601f16801561066b5780820380516001836020036101000a031916815260200191505b509250505060006040518083038186803b15801561068857600080fd5b505af415801561069c573d6000803e3d6000fd5b505050506040513d6000823e601f3d908101601f1916820160405260208110156106c557600080fd5b8101908080516401000000008111156106dd57600080fd5b820160208101848111156106f057600080fd5b815185602082028301116401000000008211171561070d57600080fd5b5050805190935060019250821090506105c157fe5b60008073__State_________________________________63c586f63b846040518263ffffffff1660e060020a0281526004018080602001828103825283818151815260200191508051906020019080838360005b8381101561078f578181015183820152602001610777565b50505050905090810190601f1680156107bc5780820380516001836020036101000a031916815260200191505b509250505060206040518083038186803b1580156107d957600080fd5b505af41580156107ed573d6000803e3d6000fd5b505050506040513d602081101561080357600080fd5b5051929092015192915050565b60008073__State_________________________________63c586f63b846040518263ffffffff1660e060020a0281526004018080602001828103825283818151815260200191508051906020019080838360005b8381101561087d578181015183820152602001610865565b50505050905090810190601f1680156108aa5780820380516001836020036101000a031916815260200191505b509250505060206040518083038186803b1580156108c757600080fd5b505af41580156108db573d6000803e3d6000fd5b505050506040513d60208110156108f157600080fd5b50519290920160400151929150505600a165627a7a7230582008713156a4180b68e7f1bd19a84dec3f921bc3be204612a4a40cd631742d087d0029",
  "source": "pragma solidity ^0.4.18;\n\nimport \"fmg-core/contracts/State.sol\"; // TODO ensure the fmg-core is reflected in a package.json\n\nlibrary TicTacToeState {\n    enum PositionType { Rest, Xplaying, Oplaying, Victory, Draw } \n    \n    // TicTacToe State Fields\n    // (relative to gamestate offset) <- GK / this is because the gamestate is appended to the full state of the channel, which has things like turnNum in it\n    // ==============================\n    // [  0 -  31] enum positionType\n    // [ 32 -  63] uint256 stake\n    // [ 64 -  95] uint16 noughts\n    // [ 96 - 127] uint16 crosses\n\n    function positionType(bytes _state) public pure returns (PositionType _positionType) {\n        uint offset = State.gameStateOffset(_state);\n        assembly {\n            _positionType := mload(add(_state, offset))\n        }\n    }\n\n    function stake(bytes _state) public pure returns (uint256 _stake) {\n        uint offset = State.gameStateOffset(_state) + 32;\n        assembly {\n            _stake := mload(add(_state, offset))\n        }\n    }\n\n    function noughts(bytes _state) public pure returns (uint16 _noughts) {\n        uint offset = State.gameStateOffset(_state) + 64;\n        assembly {\n            _noughts := mload(add(_state, offset))\n        }\n    }\n\n    function crosses(bytes _state) public pure returns (uint16 _crosses) {\n        uint offset = State.gameStateOffset(_state) + 96;\n        assembly {\n            _crosses := mload(add(_state, offset))\n        }\n    }\n\n    // utility functions\n    function aResolution(bytes _state) public pure returns (uint256 _aBal) {\n        return State.resolution(_state)[0];\n    }\n\n    function bResolution(bytes _state) public pure returns (uint256 _bBal) {\n        return State.resolution(_state)[1];\n    }\n}\n",
  "sourcePath": "/Users/georgeknee/magmo/TTT/contracts/TicTacToeState.sol",
  "compiler": {
    "name": "solc",
    "version": "0.4.24+commit.e67f0147.Emscripten.clang"
  },
  "schemaVersion": "2.0.1",
  "updatedAt": "2019-01-09T16:10:59.638Z"
}