{
  "contractName": "TicTacToeGame",
  "abi": [
    {
      "constant": true,
      "inputs": [
        {
          "name": "_old",
          "type": "bytes"
        },
        {
          "name": "_new",
          "type": "bytes"
        }
      ],
      "name": "validTransition",
      "outputs": [
        {
          "name": "",
          "type": "bool"
        }
      ],
      "payable": false,
      "stateMutability": "pure",
      "type": "function"
    }
  ],
  "bytecode": "0x608060405234801561001057600080fd5b50615d5980620000216000396000f3006080604052600436106100275763ffffffff60e060020a6000350416639207bf96811461002c575b600080fd5b34801561003857600080fd5b506040805160206004803580820135601f81018490048402850184019095528484526100c394369492936024939284019190819084018382808284375050604080516020601f89358b018035918201839004830284018301909452808352979a9998810197919650918201945092508291508401838280828437509497506100d79650505050505050565b604080519115158252519081900360200190f35b60008060405160e060020a638a0cc0ed02815260206004820181815286516024840152865173__TicTacToeState________________________93638a0cc0ed9389939283926044019185019080838360005b8381101561014257818101518382015260200161012a565b50505050905090810190601f16801561016f5780820380516001836020036101000a031916815260200191505b509250505060206040518083038186803b15801561018c57600080fd5b505af41580156101a0573d6000803e3d6000fd5b505050506040513d60208110156101b657600080fd5b505160048111156101c357fe5b14156102d157600160405160e060020a638a0cc0ed02815260206004820181815285516024840152855173__TicTacToeState________________________93638a0cc0ed9388939283926044019185019080838360005b8381101561023357818101518382015260200161021b565b50505050905090810190601f1680156102605780820380516001836020036101000a031916815260200191505b509250505060206040518083038186803b15801561027d57600080fd5b505af4158015610291573d6000803e3d6000fd5b505050506040513d60208110156102a757600080fd5b505160048111156102b457fe5b14156102cc576102c483836110f6565b5060016110f0565b611063565b600160405160e060020a638a0cc0ed02815260206004820181815286516024840152865173__TicTacToeState________________________93638a0cc0ed9389939283926044019185019080838360005b8381101561033b578181015183820152602001610323565b50505050905090810190601f1680156103685780820380516001836020036101000a031916815260200191505b509250505060206040518083038186803b15801561038557600080fd5b505af4158015610399573d6000803e3d6000fd5b505050506040513d60208110156103af57600080fd5b505160048111156103bc57fe5b14156106b357600260405160e060020a638a0cc0ed02815260206004820181815285516024840152855173__TicTacToeState________________________93638a0cc0ed9388939283926044019185019080838360005b8381101561042c578181015183820152602001610414565b50505050905090810190601f1680156104595780820380516001836020036101000a031916815260200191505b509250505060206040518083038186803b15801561047657600080fd5b505af415801561048a573d6000803e3d6000fd5b505050506040513d60208110156104a057600080fd5b505160048111156104ad57fe5b14156104bd576102c48383612205565b600360405160e060020a638a0cc0ed02815260206004820181815285516024840152855173__TicTacToeState________________________93638a0cc0ed9388939283926044019185019080838360005b8381101561052757818101518382015260200161050f565b50505050905090810190601f1680156105545780820380516001836020036101000a031916815260200191505b509250505060206040518083038186803b15801561057157600080fd5b505af4158015610585573d6000803e3d6000fd5b505050506040513d602081101561059b57600080fd5b505160048111156105a857fe5b14156105b8576102c483836131b8565b600060405160e060020a638a0cc0ed02815260206004820181815285516024840152855173__TicTacToeState________________________93638a0cc0ed9388939283926044019185019080838360005b8381101561062257818101518382015260200161060a565b50505050905090810190601f16801561064f5780820380516001836020036101000a031916815260200191505b509250505060206040518083038186803b15801561066c57600080fd5b505af4158015610680573d6000803e3d6000fd5b505050506040513d602081101561069657600080fd5b505160048111156106a357fe5b14156102cc576102c48383613329565b600260405160e060020a638a0cc0ed02815260206004820181815286516024840152865173__TicTacToeState________________________93638a0cc0ed9389939283926044019185019080838360005b8381101561071d578181015183820152602001610705565b50505050905090810190601f16801561074a5780820380516001836020036101000a031916815260200191505b509250505060206040518083038186803b15801561076757600080fd5b505af415801561077b573d6000803e3d6000fd5b505050506040513d602081101561079157600080fd5b5051600481111561079e57fe5b1415610a9557600160405160e060020a638a0cc0ed02815260206004820181815285516024840152855173__TicTacToeState________________________93638a0cc0ed9388939283926044019185019080838360005b8381101561080e5781810151838201526020016107f6565b50505050905090810190601f16801561083b5780820380516001836020036101000a031916815260200191505b509250505060206040518083038186803b15801561085857600080fd5b505af415801561086c573d6000803e3d6000fd5b505050506040513d602081101561088257600080fd5b5051600481111561088f57fe5b141561089f576102c48383613c05565b600360405160e060020a638a0cc0ed02815260206004820181815285516024840152855173__TicTacToeState________________________93638a0cc0ed9388939283926044019185019080838360005b838110156109095781810151838201526020016108f1565b50505050905090810190601f1680156109365780820380516001836020036101000a031916815260200191505b509250505060206040518083038186803b15801561095357600080fd5b505af4158015610967573d6000803e3d6000fd5b505050506040513d602081101561097d57600080fd5b5051600481111561098a57fe5b141561099a576102c48383613fa9565b600460405160e060020a638a0cc0ed02815260206004820181815285516024840152855173__TicTacToeState________________________93638a0cc0ed9388939283926044019185019080838360005b83811015610a045781810151838201526020016109ec565b50505050905090810190601f168015610a315780820380516001836020036101000a031916815260200191505b509250505060206040518083038186803b158015610a4e57600080fd5b505af4158015610a62573d6000803e3d6000fd5b505050506040513d6020811015610a7857600080fd5b50516004811115610a8557fe5b14156102cc576102c4838361411a565b600360405160e060020a638a0cc0ed02815260206004820181815286516024840152865173__TicTacToeState________________________93638a0cc0ed9389939283926044019185019080838360005b83811015610aff578181015183820152602001610ae7565b50505050905090810190601f168015610b2c5780820380516001836020036101000a031916815260200191505b509250505060206040518083038186803b158015610b4957600080fd5b505af4158015610b5d573d6000803e3d6000fd5b505050506040513d6020811015610b7357600080fd5b50516004811115610b8057fe5b1415610d7c57600060405160e060020a638a0cc0ed02815260206004820181815285516024840152855173__TicTacToeState________________________93638a0cc0ed9388939283926044019185019080838360005b83811015610bf0578181015183820152602001610bd8565b50505050905090810190601f168015610c1d5780820380516001836020036101000a031916815260200191505b509250505060206040518083038186803b158015610c3a57600080fd5b505af4158015610c4e573d6000803e3d6000fd5b505050506040513d6020811015610c6457600080fd5b50516004811115610c7157fe5b1415610c81576102c48383615432565b600160405160e060020a638a0cc0ed02815260206004820181815285516024840152855173__TicTacToeState________________________93638a0cc0ed9388939283926044019185019080838360005b83811015610ceb578181015183820152602001610cd3565b50505050905090810190601f168015610d185780820380516001836020036101000a031916815260200191505b509250505060206040518083038186803b158015610d3557600080fd5b505af4158015610d49573d6000803e3d6000fd5b505050506040513d6020811015610d5f57600080fd5b50516004811115610d6c57fe5b14156102cc576102c4838361573d565b600460405160e060020a638a0cc0ed02815260206004820181815286516024840152865173__TicTacToeState________________________93638a0cc0ed9389939283926044019185019080838360005b83811015610de6578181015183820152602001610dce565b50505050905090810190601f168015610e135780820380516001836020036101000a031916815260200191505b509250505060206040518083038186803b158015610e3057600080fd5b505af4158015610e44573d6000803e3d6000fd5b505050506040513d6020811015610e5a57600080fd5b50516004811115610e6757fe5b141561106357600060405160e060020a638a0cc0ed02815260206004820181815285516024840152855173__TicTacToeState________________________93638a0cc0ed9388939283926044019185019080838360005b83811015610ed7578181015183820152602001610ebf565b50505050905090810190601f168015610f045780820380516001836020036101000a031916815260200191505b509250505060206040518083038186803b158015610f2157600080fd5b505af4158015610f35573d6000803e3d6000fd5b505050506040513d6020811015610f4b57600080fd5b50516004811115610f5857fe5b1415610f68576102c48383615432565b600160405160e060020a638a0cc0ed02815260206004820181815285516024840152855173__TicTacToeState________________________93638a0cc0ed9388939283926044019185019080838360005b83811015610fd2578181015183820152602001610fba565b50505050905090810190601f168015610fff5780820380516001836020036101000a031916815260200191505b509250505060206040518083038186803b15801561101c57600080fd5b505af4158015611030573d6000803e3d6000fd5b505050506040513d602081101561104657600080fd5b5051600481111561105357fe5b1415611063576102c4838361573d565b604080517f08c379a000000000000000000000000000000000000000000000000000000000815260206004820152602660248201527f436f756c64206e6f74206d6174636820746f20612076616c6964207472616e7360448201527f6974696f6e2e0000000000000000000000000000000000000000000000000000606482015290519081900360840190fd5b92915050565b60405160e060020a63bc53a0b902815260206004820181815283516024840152835173__TicTacToeState________________________9363bc53a0b99386939283926044019185019080838360005b8381101561115e578181015183820152602001611146565b50505050905090810190601f16801561118b5780820380516001836020036101000a031916815260200191505b509250505060206040518083038186803b1580156111a857600080fd5b505af41580156111bc573d6000803e3d6000fd5b505050506040513d60208110156111d257600080fd5b505161ffff161561124457604080517f08c379a000000000000000000000000000000000000000000000000000000000815260206004820152601560248201527f20612074657374206572726f72206d6573736167650000000000000000000000604482015290519081900360640190fd5b60405160e160020a6324fe539702815260206004820181815283516024840152835173__TicTacToeHelpers______________________93630fe61fb59373__TicTacToeState________________________936349fca72e93889391928392604401919085019080838360005b838110156112ca5781810151838201526020016112b2565b50505050905090810190601f1680156112f75780820380516001836020036101000a031916815260200191505b509250505060206040518083038186803b15801561131457600080fd5b505af4158015611328573d6000803e3d6000fd5b505050506040513d602081101561133e57600080fd5b50516040805160e060020a63ffffffff851602815261ffff909216600483015260006024830152516044808301926020929190829003018186803b15801561138557600080fd5b505af4158015611399573d6000803e3d6000fd5b505050506040513d60208110156113af57600080fd5b505115156113bc57600080fd5b60405160e160020a63168f060102815260206004820181815284516024840152845173__TicTacToeState________________________93632d1e0c029387939283926044019185019080838360005b8381101561142457818101518382015260200161140c565b50505050905090810190601f1680156114515780820380516001836020036101000a031916815260200191505b509250505060206040518083038186803b15801561146e57600080fd5b505af4158015611482573d6000803e3d6000fd5b505050506040513d602081101561149857600080fd5b505160405160e160020a63168f060102815260206004820181815284516024840152845173__TicTacToeState________________________93632d1e0c029387939283926044019185019080838360005b838110156115025781810151838201526020016114ea565b50505050905090810190601f16801561152f5780820380516001836020036101000a031916815260200191505b509250505060206040518083038186803b15801561154c57600080fd5b505af4158015611560573d6000803e3d6000fd5b505050506040513d602081101561157657600080fd5b50511461158257600080fd5b60405160e160020a632dab59f702815260206004820181815283516024840152835173__State_________________________________93635b56b3ee9386939283926044019185019080838360005b838110156115ea5781810151838201526020016115d2565b50505050905090810190601f1680156116175780820380516001836020036101000a031916815260200191505b509250505060206040518083038186803b15801561163457600080fd5b505af4158015611648573d6000803e3d6000fd5b505050506040513d602081101561165e57600080fd5b50511515611bc35760405160e160020a63168f060102815260206004820181815283516024840152835173__TicTacToeState________________________93632d1e0c029386939283926044019185019080838360005b838110156116ce5781810151838201526020016116b6565b50505050905090810190601f1680156116fb5780820380516001836020036101000a031916815260200191505b509250505060206040518083038186803b15801561171857600080fd5b505af415801561172c573d6000803e3d6000fd5b505050506040513d602081101561174257600080fd5b505160405160e060020a634c291ecd02815260206004820181815285516024840152855173__TicTacToeState________________________93634c291ecd9388939283926044019185019080838360005b838110156117ac578181015183820152602001611794565b50505050905090810190601f1680156117d95780820380516001836020036101000a031916815260200191505b509250505060206040518083038186803b1580156117f657600080fd5b505af415801561180a573d6000803e3d6000fd5b505050506040513d602081101561182057600080fd5b505160405160e060020a634c291ecd028152602060048201818152855160248401528551949093019373__TicTacToeState________________________93634c291ecd9387939192839260449092019185019080838360005b8381101561189257818101518382015260200161187a565b50505050905090810190601f1680156118bf5780820380516001836020036101000a031916815260200191505b509250505060206040518083038186803b1580156118dc57600080fd5b505af41580156118f0573d6000803e3d6000fd5b505050506040513d602081101561190657600080fd5b50511461191257600080fd5b60405160e160020a63168f060102815260206004820181815283516024840152835173__TicTacToeState________________________93632d1e0c029386939283926044019185019080838360005b8381101561197a578181015183820152602001611962565b50505050905090810190601f1680156119a75780820380516001836020036101000a031916815260200191505b509250505060206040518083038186803b1580156119c457600080fd5b505af41580156119d8573d6000803e3d6000fd5b505050506040513d60208110156119ee57600080fd5b505160405160e060020a634e77b06302815260206004820181815285516024840152855173__TicTacToeState________________________93634e77b0639388939283926044019185019080838360005b83811015611a58578181015183820152602001611a40565b50505050905090810190601f168015611a855780820380516001836020036101000a031916815260200191505b509250505060206040518083038186803b158015611aa257600080fd5b505af4158015611ab6573d6000803e3d6000fd5b505050506040513d6020811015611acc57600080fd5b505160405160e060020a634e77b063028152602060048201818152855160248401528551949093039373__TicTacToeState________________________93634e77b0639387939192839260449092019185019080838360005b83811015611b3e578181015183820152602001611b26565b50505050905090810190601f168015611b6b5780820380516001836020036101000a031916815260200191505b509250505060206040518083038186803b158015611b8857600080fd5b505af4158015611b9c573d6000803e3d6000fd5b505050506040513d6020811015611bb257600080fd5b505114611bbe57600080fd5b612201565b60405160e160020a632dab59f702815260206004820181815283516024840152835173__State_________________________________93635b56b3ee9386939283926044019185019080838360005b83811015611c2b578181015183820152602001611c13565b50505050905090810190601f168015611c585780820380516001836020036101000a031916815260200191505b509250505060206040518083038186803b158015611c7557600080fd5b505af4158015611c89573d6000803e3d6000fd5b505050506040513d6020811015611c9f57600080fd5b5051600114156122015760405160e160020a63168f060102815260206004820181815283516024840152835173__TicTacToeState________________________93632d1e0c029386939283926044019185019080838360005b83811015611d11578181015183820152602001611cf9565b50505050905090810190601f168015611d3e5780820380516001836020036101000a031916815260200191505b509250505060206040518083038186803b158015611d5b57600080fd5b505af4158015611d6f573d6000803e3d6000fd5b505050506040513d6020811015611d8557600080fd5b505160405160e060020a634c291ecd02815260206004820181815285516024840152855173__TicTacToeState________________________93634c291ecd9388939283926044019185019080838360005b83811015611def578181015183820152602001611dd7565b50505050905090810190601f168015611e1c5780820380516001836020036101000a031916815260200191505b509250505060206040518083038186803b158015611e3957600080fd5b505af4158015611e4d573d6000803e3d6000fd5b505050506040513d6020811015611e6357600080fd5b505160405160e060020a634c291ecd028152602060048201818152855160248401528551949093039373__TicTacToeState________________________93634c291ecd9387939192839260449092019185019080838360005b83811015611ed5578181015183820152602001611ebd565b50505050905090810190601f168015611f025780820380516001836020036101000a031916815260200191505b509250505060206040518083038186803b158015611f1f57600080fd5b505af4158015611f33573d6000803e3d6000fd5b505050506040513d6020811015611f4957600080fd5b505114611f5557600080fd5b60405160e160020a63168f060102815260206004820181815283516024840152835173__TicTacToeState________________________93632d1e0c029386939283926044019185019080838360005b83811015611fbd578181015183820152602001611fa5565b50505050905090810190601f168015611fea5780820380516001836020036101000a031916815260200191505b509250505060206040518083038186803b15801561200757600080fd5b505af415801561201b573d6000803e3d6000fd5b505050506040513d602081101561203157600080fd5b505160405160e060020a634e77b06302815260206004820181815285516024840152855173__TicTacToeState________________________93634e77b0639388939283926044019185019080838360005b8381101561209b578181015183820152602001612083565b50505050905090810190601f1680156120c85780820380516001836020036101000a031916815260200191505b509250505060206040518083038186803b1580156120e557600080fd5b505af41580156120f9573d6000803e3d6000fd5b505050506040513d602081101561210f57600080fd5b505160405160e060020a634e77b063028152602060048201818152855160248401528551949093019373__TicTacToeState________________________93634e77b0639387939192839260449092019185019080838360005b83811015612181578181015183820152602001612169565b50505050905090810190601f1680156121ae5780820380516001836020036101000a031916815260200191505b509250505060206040518083038186803b1580156121cb57600080fd5b505af41580156121df573d6000803e3d6000fd5b505050506040513d60208110156121f557600080fd5b50511461220157600080fd5b5050565b60405160e160020a63168f060102815260206004820181815284516024840152845173__TicTacToeState________________________93632d1e0c029387939283926044019185019080838360005b8381101561226d578181015183820152602001612255565b50505050905090810190601f16801561229a5780820380516001836020036101000a031916815260200191505b509250505060206040518083038186803b1580156122b757600080fd5b505af41580156122cb573d6000803e3d6000fd5b505050506040513d60208110156122e157600080fd5b505160405160e160020a63168f060102815260206004820181815284516024840152845173__TicTacToeState________________________93632d1e0c029387939283926044019185019080838360005b8381101561234b578181015183820152602001612333565b50505050905090810190601f1680156123785780820380516001836020036101000a031916815260200191505b509250505060206040518083038186803b15801561239557600080fd5b505af41580156123a9573d6000803e3d6000fd5b505050506040513d60208110156123bf57600080fd5b5051146123cb57600080fd5b60405160e060020a63bc53a0b902815260206004820181815283516024840152835173__TicTacToeHelpers______________________93630fe61fb59373__TicTacToeState________________________9363bc53a0b993889391928392604401919085019080838360005b83811015612451578181015183820152602001612439565b50505050905090810190601f16801561247e5780820380516001836020036101000a031916815260200191505b509250505060206040518083038186803b15801561249b57600080fd5b505af41580156124af573d6000803e3d6000fd5b505050506040513d60208110156124c557600080fd5b505160405160e060020a63bc53a0b902815260206004820181815287516024840152875173__TicTacToeState________________________9363bc53a0b9938a939283926044019185019080838360005b8381101561252f578181015183820152602001612517565b50505050905090810190601f16801561255c5780820380516001836020036101000a031916815260200191505b509250505060206040518083038186803b15801561257957600080fd5b505af415801561258d573d6000803e3d6000fd5b505050506040513d60208110156125a357600080fd5b50516040805160e060020a63ffffffff861602815261ffff9384166004820152929091166024830152516044808301926020929190829003018186803b1580156125ec57600080fd5b505af4158015612600573d6000803e3d6000fd5b505050506040513d602081101561261657600080fd5b5051151561262357600080fd5b60405160e160020a6324fe539702815260206004820181815284516024840152845173__TicTacToeState________________________936349fca72e9387939283926044019185019080838360005b8381101561268b578181015183820152602001612673565b50505050905090810190601f1680156126b85780820380516001836020036101000a031916815260200191505b509250505060206040518083038186803b1580156126d557600080fd5b505af41580156126e9573d6000803e3d6000fd5b505050506040513d60208110156126ff57600080fd5b505160405160e160020a6324fe539702815260206004820181815284516024840152845161ffff9094169373__TicTacToeState________________________936349fca72e9387939283926044019185019080838360005b83811015612770578181015183820152602001612758565b50505050905090810190601f16801561279d5780820380516001836020036101000a031916815260200191505b509250505060206040518083038186803b1580156127ba57600080fd5b505af41580156127ce573d6000803e3d6000fd5b505050506040513d60208110156127e457600080fd5b505161ffff16146127f457600080fd5b60405160e160020a632dab59f702815260206004820181815283516024840152835173__State_________________________________93635b56b3ee9386939283926044019185019080838360005b8381101561285c578181015183820152602001612844565b50505050905090810190601f1680156128895780820380516001836020036101000a031916815260200191505b509250505060206040518083038186803b1580156128a657600080fd5b505af41580156128ba573d6000803e3d6000fd5b505050506040513d60208110156128d057600080fd5b50511515612cd55760405160e160020a63168f060102815260206004820181815283516024840152835173__TicTacToeState________________________93632d1e0c029386939283926044019185019080838360005b83811015612940578181015183820152602001612928565b50505050905090810190601f16801561296d5780820380516001836020036101000a031916815260200191505b509250505060206040518083038186803b15801561298a57600080fd5b505af415801561299e573d6000803e3d6000fd5b505050506040513d60208110156129b457600080fd5b505160405160e060020a634c291ecd02815260206004820181815285516024840152855160029094029373__TicTacToeState________________________93634c291ecd9388939283926044019185019080838360005b83811015612a24578181015183820152602001612a0c565b50505050905090810190601f168015612a515780820380516001836020036101000a031916815260200191505b509250505060206040518083038186803b158015612a6e57600080fd5b505af4158015612a82573d6000803e3d6000fd5b505050506040513d6020811015612a9857600080fd5b505160405160e060020a634c291ecd028152602060048201818152855160248401528551949093019373__TicTacToeState________________________93634c291ecd9387939192839260449092019185019080838360005b83811015612b0a578181015183820152602001612af2565b50505050905090810190601f168015612b375780820380516001836020036101000a031916815260200191505b509250505060206040518083038186803b158015612b5457600080fd5b505af4158015612b68573d6000803e3d6000fd5b505050506040513d6020811015612b7e57600080fd5b505114612b8a57600080fd5b60405160e160020a63168f060102815260206004820181815283516024840152835173__TicTacToeState________________________93632d1e0c029386939283926044019185019080838360005b83811015612bf2578181015183820152602001612bda565b50505050905090810190601f168015612c1f5780820380516001836020036101000a031916815260200191505b509250505060206040518083038186803b158015612c3c57600080fd5b505af4158015612c50573d6000803e3d6000fd5b505050506040513d6020811015612c6657600080fd5b505160405160e060020a634e77b06302815260206004820181815285516024840152855160029094029373__TicTacToeState________________________93634e77b06393889392839260440191850190808383600083811015611a58578181015183820152602001611a40565b60405160e160020a632dab59f702815260206004820181815283516024840152835173__State_________________________________93635b56b3ee9386939283926044019185019080838360005b83811015612d3d578181015183820152602001612d25565b50505050905090810190601f168015612d6a5780820380516001836020036101000a031916815260200191505b509250505060206040518083038186803b158015612d8757600080fd5b505af4158015612d9b573d6000803e3d6000fd5b505050506040513d6020811015612db157600080fd5b5051600114156122015760405160e160020a63168f060102815260206004820181815283516024840152835173__TicTacToeState________________________93632d1e0c029386939283926044019185019080838360005b83811015612e23578181015183820152602001612e0b565b50505050905090810190601f168015612e505780820380516001836020036101000a031916815260200191505b509250505060206040518083038186803b158015612e6d57600080fd5b505af4158015612e81573d6000803e3d6000fd5b505050506040513d6020811015612e9757600080fd5b505160405160e060020a634c291ecd02815260206004820181815285516024840152855160029094029373__TicTacToeState________________________93634c291ecd9388939283926044019185019080838360005b83811015612f07578181015183820152602001612eef565b50505050905090810190601f168015612f345780820380516001836020036101000a031916815260200191505b509250505060206040518083038186803b158015612f5157600080fd5b505af4158015612f65573d6000803e3d6000fd5b505050506040513d6020811015612f7b57600080fd5b505160405160e060020a634c291ecd028152602060048201818152855160248401528551949093039373__TicTacToeState________________________93634c291ecd9387939192839260449092019185019080838360005b83811015612fed578181015183820152602001612fd5565b50505050905090810190601f16801561301a5780820380516001836020036101000a031916815260200191505b509250505060206040518083038186803b15801561303757600080fd5b505af415801561304b573d6000803e3d6000fd5b505050506040513d602081101561306157600080fd5b50511461306d57600080fd5b60405160e160020a63168f060102815260206004820181815283516024840152835173__TicTacToeState________________________93632d1e0c029386939283926044019185019080838360005b838110156130d55781810151838201526020016130bd565b50505050905090810190601f1680156131025780820380516001836020036101000a031916815260200191505b509250505060206040518083038186803b15801561311f57600080fd5b505af4158015613133573d6000803e3d6000fd5b505050506040513d602081101561314957600080fd5b505160405160e060020a634e77b06302815260206004820181815285516024840152855160029094029373__TicTacToeState________________________93634e77b0639388939283926044019185019080838360008381101561209b578181015183820152602001612083565b60405160e060020a63bc53a0b902815260206004820181815283516024840152835173__TicTacToeHelpers______________________93634b45b73f9373__TicTacToeState________________________9363bc53a0b993889391928392604401919085019080838360005b8381101561323e578181015183820152602001613226565b50505050905090810190601f16801561326b5780820380516001836020036101000a031916815260200191505b509250505060206040518083038186803b15801561328857600080fd5b505af415801561329c573d6000803e3d6000fd5b505050506040513d60208110156132b257600080fd5b50516040805160e060020a63ffffffff851602815261ffff9092166004830152516024808301926020929190829003018186803b1580156132f257600080fd5b505af4158015613306573d6000803e3d6000fd5b505050506040513d602081101561331c57600080fd5b505115156123cb57600080fd5b60405160e060020a63bc53a0b902815260206004820181815284516024840152845173__TicTacToeState________________________9363bc53a0b99387939283926044019185019080838360005b83811015613391578181015183820152602001613379565b50505050905090810190601f1680156133be5780820380516001836020036101000a031916815260200191505b509250505060206040518083038186803b1580156133db57600080fd5b505af41580156133ef573d6000803e3d6000fd5b505050506040513d602081101561340557600080fd5b505161ffff161561341557600080fd5b60405160e160020a632dab59f702815260206004820181815283516024840152835173__State_________________________________93635b56b3ee9386939283926044019185019080838360005b8381101561347d578181015183820152602001613465565b50505050905090810190601f1680156134aa5780820380516001836020036101000a031916815260200191505b509250505060206040518083038186803b1580156134c757600080fd5b505af41580156134db573d6000803e3d6000fd5b505050506040513d60208110156134f157600080fd5b5051151561380c5760405160e160020a63168f060102815260206004820181815284516024840152845173__TicTacToeState________________________93632d1e0c029387939283926044019185019080838360005b83811015613561578181015183820152602001613549565b50505050905090810190601f16801561358e5780820380516001836020036101000a031916815260200191505b509250505060206040518083038186803b1580156135ab57600080fd5b505af41580156135bf573d6000803e3d6000fd5b505050506040513d60208110156135d557600080fd5b505160405160e060020a634c291ecd02815260206004820181815285516024840152855173__TicTacToeState________________________93634c291ecd9388939283926044019185019080838360005b8381101561363f578181015183820152602001613627565b50505050905090810190601f16801561366c5780820380516001836020036101000a031916815260200191505b509250505060206040518083038186803b15801561368957600080fd5b505af415801561369d573d6000803e3d6000fd5b505050506040513d60208110156136b357600080fd5b505160405160e060020a634c291ecd028152602060048201818152855160248401528551949093019373__TicTacToeState________________________93634c291ecd9387939192839260449092019185019080838360005b8381101561372557818101518382015260200161370d565b50505050905090810190601f1680156137525780820380516001836020036101000a031916815260200191505b509250505060206040518083038186803b15801561376f57600080fd5b505af4158015613783573d6000803e3d6000fd5b505050506040513d602081101561379957600080fd5b5051146137a557600080fd5b60405160e160020a63168f060102815260206004820181815284516024840152845173__TicTacToeState________________________93632d1e0c029387939283926044019185019080838360008381101561197a578181015183820152602001611962565b60405160e160020a632dab59f702815260206004820181815283516024840152835173__State_________________________________93635b56b3ee9386939283926044019185019080838360005b8381101561387457818101518382015260200161385c565b50505050905090810190601f1680156138a15780820380516001836020036101000a031916815260200191505b509250505060206040518083038186803b1580156138be57600080fd5b505af41580156138d2573d6000803e3d6000fd5b505050506040513d60208110156138e857600080fd5b5051600114156122015760405160e160020a63168f060102815260206004820181815284516024840152845173__TicTacToeState________________________93632d1e0c029387939283926044019185019080838360005b8381101561395a578181015183820152602001613942565b50505050905090810190601f1680156139875780820380516001836020036101000a031916815260200191505b509250505060206040518083038186803b1580156139a457600080fd5b505af41580156139b8573d6000803e3d6000fd5b505050506040513d60208110156139ce57600080fd5b505160405160e060020a634c291ecd02815260206004820181815285516024840152855173__TicTacToeState________________________93634c291ecd9388939283926044019185019080838360005b83811015613a38578181015183820152602001613a20565b50505050905090810190601f168015613a655780820380516001836020036101000a031916815260200191505b509250505060206040518083038186803b158015613a8257600080fd5b505af4158015613a96573d6000803e3d6000fd5b505050506040513d6020811015613aac57600080fd5b505160405160e060020a634c291ecd028152602060048201818152855160248401528551949093039373__TicTacToeState________________________93634c291ecd9387939192839260449092019185019080838360005b83811015613b1e578181015183820152602001613b06565b50505050905090810190601f168015613b4b5780820380516001836020036101000a031916815260200191505b509250505060206040518083038186803b158015613b6857600080fd5b505af4158015613b7c573d6000803e3d6000fd5b505050506040513d6020811015613b9257600080fd5b505114613b9e57600080fd5b60405160e160020a63168f060102815260206004820181815284516024840152845173__TicTacToeState________________________93632d1e0c0293879392839260440191850190808383600083811015611fbd578181015183820152602001611fa5565b60405160e160020a6324fe539702815260206004820181815283516024840152835173__TicTacToeHelpers______________________93630fe61fb59373__TicTacToeState________________________936349fca72e93889391928392604401919085019080838360005b83811015613c8b578181015183820152602001613c73565b50505050905090810190601f168015613cb85780820380516001836020036101000a031916815260200191505b509250505060206040518083038186803b158015613cd557600080fd5b505af4158015613ce9573d6000803e3d6000fd5b505050506040513d6020811015613cff57600080fd5b505160405160e160020a6324fe539702815260206004820181815287516024840152875173__TicTacToeState________________________936349fca72e938a939283926044019185019080838360005b83811015613d69578181015183820152602001613d51565b50505050905090810190601f168015613d965780820380516001836020036101000a031916815260200191505b509250505060206040518083038186803b158015613db357600080fd5b505af4158015613dc7573d6000803e3d6000fd5b505050506040513d6020811015613ddd57600080fd5b50516040805160e060020a63ffffffff861602815261ffff9384166004820152929091166024830152516044808301926020929190829003018186803b158015613e2657600080fd5b505af4158015613e3a573d6000803e3d6000fd5b505050506040513d6020811015613e5057600080fd5b50511515613e5d57600080fd5b60405160e060020a63bc53a0b902815260206004820181815284516024840152845173__TicTacToeState________________________9363bc53a0b99387939283926044019185019080838360005b83811015613ec5578181015183820152602001613ead565b50505050905090810190601f168015613ef25780820380516001836020036101000a031916815260200191505b509250505060206040518083038186803b158015613f0f57600080fd5b505af4158015613f23573d6000803e3d6000fd5b505050506040513d6020811015613f3957600080fd5b505160405160e060020a63bc53a0b902815260206004820181815284516024840152845161ffff9094169373__TicTacToeState________________________9363bc53a0b993879392839260440191850190808383600083811015612770578181015183820152602001612758565b60405160e160020a6324fe539702815260206004820181815283516024840152835173__TicTacToeHelpers______________________93634b45b73f9373__TicTacToeState________________________936349fca72e93889391928392604401919085019080838360005b8381101561402f578181015183820152602001614017565b50505050905090810190601f16801561405c5780820380516001836020036101000a031916815260200191505b509250505060206040518083038186803b15801561407957600080fd5b505af415801561408d573d6000803e3d6000fd5b505050506040513d60208110156140a357600080fd5b50516040805160e060020a63ffffffff851602815261ffff9092166004830152516024808301926020929190829003018186803b1580156140e357600080fd5b505af41580156140f7573d6000803e3d6000fd5b505050506040513d602081101561410d57600080fd5b50511515613c0557600080fd5b60405160e060020a63bc53a0b902815260206004820181815283516024840152835173__TicTacToeHelpers______________________9363f94d075a9373__TicTacToeState________________________9363bc53a0b993889391928392604401919085019080838360005b838110156141a0578181015183820152602001614188565b50505050905090810190601f1680156141cd5780820380516001836020036101000a031916815260200191505b509250505060206040518083038186803b1580156141ea57600080fd5b505af41580156141fe573d6000803e3d6000fd5b505050506040513d602081101561421457600080fd5b505160405160e160020a6324fe539702815260206004820181815286516024840152865173__TicTacToeState________________________936349fca72e9389939283926044019185019080838360005b8381101561427e578181015183820152602001614266565b50505050905090810190601f1680156142ab5780820380516001836020036101000a031916815260200191505b509250505060206040518083038186803b1580156142c857600080fd5b505af41580156142dc573d6000803e3d6000fd5b505050506040513d60208110156142f257600080fd5b50516040805160e060020a63ffffffff861602815261ffff9384166004820152929091166024830152516044808301926020929190829003018186803b15801561433b57600080fd5b505af415801561434f573d6000803e3d6000fd5b505050506040513d602081101561436557600080fd5b5051151561437257600080fd5b60405160e160020a632dab59f702815260206004820181815283516024840152835173__State_________________________________93635b56b3ee9386939283926044019185019080838360005b838110156143da5781810151838201526020016143c2565b50505050905090810190601f1680156144075780820380516001836020036101000a031916815260200191505b509250505060206040518083038186803b15801561442457600080fd5b505af4158015614438573d6000803e3d6000fd5b505050506040513d602081101561444e57600080fd5b505115156149bf5760405160e160020a63168f060102815260206004820181815283516024840152835173__TicTacToeState________________________93632d1e0c029386939283926044019185019080838360005b838110156144be5781810151838201526020016144a6565b50505050905090810190601f1680156144eb5780820380516001836020036101000a031916815260200191505b509250505060206040518083038186803b15801561450857600080fd5b505af415801561451c573d6000803e3d6000fd5b505050506040513d602081101561453257600080fd5b505160405160e060020a634c291ecd02815260206004820181815285516024840152855160029094029373__TicTacToeState________________________93634c291ecd9388939283926044019185019080838360005b838110156145a257818101518382015260200161458a565b50505050905090810190601f1680156145cf5780820380516001836020036101000a031916815260200191505b509250505060206040518083038186803b1580156145ec57600080fd5b505af4158015614600573d6000803e3d6000fd5b505050506040513d602081101561461657600080fd5b505160405160e060020a634c291ecd028152602060048201818152855160248401528551949093019373__TicTacToeState________________________93634c291ecd9387939192839260449092019185019080838360005b83811015614688578181015183820152602001614670565b50505050905090810190601f1680156146b55780820380516001836020036101000a031916815260200191505b509250505060206040518083038186803b1580156146d257600080fd5b505af41580156146e6573d6000803e3d6000fd5b505050506040513d60208110156146fc57600080fd5b50511461470857600080fd5b60405160e160020a63168f060102815260206004820181815283516024840152835173__TicTacToeState________________________93632d1e0c029386939283926044019185019080838360005b83811015614770578181015183820152602001614758565b50505050905090810190601f16801561479d5780820380516001836020036101000a031916815260200191505b509250505060206040518083038186803b1580156147ba57600080fd5b505af41580156147ce573d6000803e3d6000fd5b505050506040513d60208110156147e457600080fd5b505160405160e060020a634e77b06302815260206004820181815285516024840152855160029094029373__TicTacToeState________________________93634e77b0639388939283926044019185019080838360005b8381101561485457818101518382015260200161483c565b50505050905090810190601f1680156148815780820380516001836020036101000a031916815260200191505b509250505060206040518083038186803b15801561489e57600080fd5b505af41580156148b2573d6000803e3d6000fd5b505050506040513d60208110156148c857600080fd5b505160405160e060020a634e77b063028152602060048201818152855160248401528551949093039373__TicTacToeState________________________93634e77b0639387939192839260449092019185019080838360005b8381101561493a578181015183820152602001614922565b50505050905090810190601f1680156149675780820380516001836020036101000a031916815260200191505b509250505060206040518083038186803b15801561498457600080fd5b505af4158015614998573d6000803e3d6000fd5b505050506040513d60208110156149ae57600080fd5b5051146149ba57600080fd5b615009565b60405160e160020a632dab59f702815260206004820181815283516024840152835173__State_________________________________93635b56b3ee9386939283926044019185019080838360005b83811015614a27578181015183820152602001614a0f565b50505050905090810190601f168015614a545780820380516001836020036101000a031916815260200191505b509250505060206040518083038186803b158015614a7157600080fd5b505af4158015614a85573d6000803e3d6000fd5b505050506040513d6020811015614a9b57600080fd5b5051600114156150095760405160e160020a63168f060102815260206004820181815283516024840152835173__TicTacToeState________________________93632d1e0c029386939283926044019185019080838360005b83811015614b0d578181015183820152602001614af5565b50505050905090810190601f168015614b3a5780820380516001836020036101000a031916815260200191505b509250505060206040518083038186803b158015614b5757600080fd5b505af4158015614b6b573d6000803e3d6000fd5b505050506040513d6020811015614b8157600080fd5b505160405160e060020a634c291ecd02815260206004820181815285516024840152855160029094029373__TicTacToeState________________________93634c291ecd9388939283926044019185019080838360005b83811015614bf1578181015183820152602001614bd9565b50505050905090810190601f168015614c1e5780820380516001836020036101000a031916815260200191505b509250505060206040518083038186803b158015614c3b57600080fd5b505af4158015614c4f573d6000803e3d6000fd5b505050506040513d6020811015614c6557600080fd5b505160405160e060020a634c291ecd028152602060048201818152855160248401528551949093039373__TicTacToeState________________________93634c291ecd9387939192839260449092019185019080838360005b83811015614cd7578181015183820152602001614cbf565b50505050905090810190601f168015614d045780820380516001836020036101000a031916815260200191505b509250505060206040518083038186803b158015614d2157600080fd5b505af4158015614d35573d6000803e3d6000fd5b505050506040513d6020811015614d4b57600080fd5b505114614d5757600080fd5b60405160e160020a63168f060102815260206004820181815283516024840152835173__TicTacToeState________________________93632d1e0c029386939283926044019185019080838360005b83811015614dbf578181015183820152602001614da7565b50505050905090810190601f168015614dec5780820380516001836020036101000a031916815260200191505b509250505060206040518083038186803b158015614e0957600080fd5b505af4158015614e1d573d6000803e3d6000fd5b505050506040513d6020811015614e3357600080fd5b505160405160e060020a634e77b06302815260206004820181815285516024840152855160029094029373__TicTacToeState________________________93634e77b0639388939283926044019185019080838360005b83811015614ea3578181015183820152602001614e8b565b50505050905090810190601f168015614ed05780820380516001836020036101000a031916815260200191505b509250505060206040518083038186803b158015614eed57600080fd5b505af4158015614f01573d6000803e3d6000fd5b505050506040513d6020811015614f1757600080fd5b505160405160e060020a634e77b063028152602060048201818152855160248401528551949093019373__TicTacToeState________________________93634e77b0639387939192839260449092019185019080838360005b83811015614f89578181015183820152602001614f71565b50505050905090810190601f168015614fb65780820380516001836020036101000a031916815260200191505b509250505060206040518083038186803b158015614fd357600080fd5b505af4158015614fe7573d6000803e3d6000fd5b505050506040513d6020811015614ffd57600080fd5b50511461500957600080fd5b60405160e160020a6324fe539702815260206004820181815283516024840152835173__TicTacToeHelpers______________________93630fe61fb59373__TicTacToeState________________________936349fca72e93889391928392604401919085019080838360005b8381101561508f578181015183820152602001615077565b50505050905090810190601f1680156150bc5780820380516001836020036101000a031916815260200191505b509250505060206040518083038186803b1580156150d957600080fd5b505af41580156150ed573d6000803e3d6000fd5b505050506040513d602081101561510357600080fd5b505160405160e160020a6324fe539702815260206004820181815287516024840152875173__TicTacToeState________________________936349fca72e938a939283926044019185019080838360005b8381101561516d578181015183820152602001615155565b50505050905090810190601f16801561519a5780820380516001836020036101000a031916815260200191505b509250505060206040518083038186803b1580156151b757600080fd5b505af41580156151cb573d6000803e3d6000fd5b505050506040513d60208110156151e157600080fd5b50516040805160e060020a63ffffffff861602815261ffff9384166004820152929091166024830152516044808301926020929190829003018186803b15801561522a57600080fd5b505af415801561523e573d6000803e3d6000fd5b505050506040513d602081101561525457600080fd5b5051151561526157600080fd5b60405160e060020a63bc53a0b902815260206004820181815284516024840152845173__TicTacToeState________________________9363bc53a0b99387939283926044019185019080838360005b838110156152c95781810151838201526020016152b1565b50505050905090810190601f1680156152f65780820380516001836020036101000a031916815260200191505b509250505060206040518083038186803b15801561531357600080fd5b505af4158015615327573d6000803e3d6000fd5b505050506040513d602081101561533d57600080fd5b505160405160e060020a63bc53a0b902815260206004820181815284516024840152845161ffff9094169373__TicTacToeState________________________9363bc53a0b99387939283926044019185019080838360005b838110156153ae578181015183820152602001615396565b50505050905090810190601f1680156153db5780820380516001836020036101000a031916815260200191505b509250505060206040518083038186803b1580156153f857600080fd5b505af415801561540c573d6000803e3d6000fd5b505050506040513d602081101561542257600080fd5b505161ffff161461220157600080fd5b60405160e060020a634c291ecd02815260206004820181815284516024840152845173__TicTacToeState________________________93634c291ecd9387939283926044019185019080838360005b8381101561549a578181015183820152602001615482565b50505050905090810190601f1680156154c75780820380516001836020036101000a031916815260200191505b509250505060206040518083038186803b1580156154e457600080fd5b505af41580156154f8573d6000803e3d6000fd5b505050506040513d602081101561550e57600080fd5b505160405160e060020a634c291ecd02815260206004820181815284516024840152845173__TicTacToeState________________________93634c291ecd9387939283926044019185019080838360005b83811015615578578181015183820152602001615560565b50505050905090810190601f1680156155a55780820380516001836020036101000a031916815260200191505b509250505060206040518083038186803b1580156155c257600080fd5b505af41580156155d6573d6000803e3d6000fd5b505050506040513d60208110156155ec57600080fd5b5051146155f857600080fd5b60405160e060020a634e77b06302815260206004820181815284516024840152845173__TicTacToeState________________________93634e77b0639387939283926044019185019080838360005b83811015615660578181015183820152602001615648565b50505050905090810190601f16801561568d5780820380516001836020036101000a031916815260200191505b509250505060206040518083038186803b1580156156aa57600080fd5b505af41580156156be573d6000803e3d6000fd5b505050506040513d60208110156156d457600080fd5b505160405160e060020a634e77b06302815260206004820181815284516024840152845173__TicTacToeState________________________93634e77b06393879392839260440191850190808383600083811015612181578181015183820152602001612169565b60405160e060020a634c291ecd02815260206004820181815284516024840152845173__TicTacToeState________________________93634c291ecd9387939283926044019185019080838360005b838110156157a557818101518382015260200161578d565b50505050905090810190601f1680156157d25780820380516001836020036101000a031916815260200191505b509250505060206040518083038186803b1580156157ef57600080fd5b505af4158015615803573d6000803e3d6000fd5b505050506040513d602081101561581957600080fd5b505160405160e060020a634c291ecd02815260206004820181815284516024840152845173__TicTacToeState________________________93634c291ecd9387939283926044019185019080838360005b8381101561588357818101518382015260200161586b565b50505050905090810190601f1680156158b05780820380516001836020036101000a031916815260200191505b509250505060206040518083038186803b1580156158cd57600080fd5b505af41580156158e1573d6000803e3d6000fd5b505050506040513d60208110156158f757600080fd5b50511461590357600080fd5b60405160e060020a634e77b06302815260206004820181815284516024840152845173__TicTacToeState________________________93634e77b0639387939283926044019185019080838360005b8381101561596b578181015183820152602001615953565b50505050905090810190601f1680156159985780820380516001836020036101000a031916815260200191505b509250505060206040518083038186803b1580156159b557600080fd5b505af41580156159c9573d6000803e3d6000fd5b505050506040513d60208110156159df57600080fd5b505160405160e060020a634e77b06302815260206004820181815284516024840152845173__TicTacToeState________________________93634e77b0639387939283926044019185019080838360005b83811015615a49578181015183820152602001615a31565b50505050905090810190601f168015615a765780820380516001836020036101000a031916815260200191505b509250505060206040518083038186803b158015615a9357600080fd5b505af4158015615aa7573d6000803e3d6000fd5b505050506040513d6020811015615abd57600080fd5b505114615ac957600080fd5b60405160e060020a63bc53a0b902815260206004820181815283516024840152835173__TicTacToeState________________________9363bc53a0b99386939283926044019185019080838360005b83811015615b31578181015183820152602001615b19565b50505050905090810190601f168015615b5e5780820380516001836020036101000a031916815260200191505b509250505060206040518083038186803b158015615b7b57600080fd5b505af4158015615b8f573d6000803e3d6000fd5b505050506040513d6020811015615ba557600080fd5b505161ffff1615615bb557600080fd5b60405160e160020a6324fe539702815260206004820181815283516024840152835173__TicTacToeHelpers______________________93630fe61fb59373__TicTacToeState________________________936349fca72e93889391928392604401919085019080838360005b83811015615c3b578181015183820152602001615c23565b50505050905090810190601f168015615c685780820380516001836020036101000a031916815260200191505b509250505060206040518083038186803b158015615c8557600080fd5b505af4158015615c99573d6000803e3d6000fd5b505050506040513d6020811015615caf57600080fd5b50516040805160e060020a63ffffffff851602815261ffff909216600483015260006024830152516044808301926020929190829003018186803b158015615cf657600080fd5b505af4158015615d0a573d6000803e3d6000fd5b505050506040513d6020811015615d2057600080fd5b5051151561220157600080fd00a165627a7a723058205c9e9c69b23dc75f9cd6d78218812ea8f3a4d7e3453a971f100da8d75bd127dd0029",
  "source": "pragma solidity ^0.4.18;\n\nimport \"fmg-core/contracts/State.sol\";\nimport \"./TicTacToeState.sol\";\nimport { TicTacToeHelpers } from \"./TicTacToeHelpers.sol\";\n\ncontract TicTacToeGame {\n    using TicTacToeState for bytes;\n\n    // require() messages we will incur n * 20,000 gas for each error message used, where n is the number of 32 byte slots it takes up\n    // https://github.com/ethereum/solidity/issues/4588\n\n    \n    // The following transitions are allowed:\n    //\n    // Rest    -> Xplaying\n    // Rest    -> Conclude but Conclude is an FMG position -- does it belong here?\n    //\n    // Xplaying -> Oplaying\n    // Xplaying -> Victory\n    // cannot get to draw (X is always completing the board because X goes first) remember we are transitioning *from* Xplay, so noughts are making the new marks\n    // Xplaying -> Resting (\"noughts\" player rejects game)\n    //\n    // Oplaying -> Xplaying\n    // Oplaying -> Victory\n    // Oplaying -> Draw\n\n    //\n    // Victory -> Rest\n    // Victory -> Xplaying\n    //\n    // Draw    -> Rest\n    // Draw    -> Xplaying\n    //\n\n    function validTransition(bytes _old, bytes _new) public pure returns (bool) {\n\n        if (_old.positionType() == TicTacToeState.PositionType.Rest) {\n            if (_new.positionType() == TicTacToeState.PositionType.Xplaying) {\n\n                validateRestToXplaying(_old, _new);\n\n                return true;\n\n            } \n        } else if (_old.positionType() == TicTacToeState.PositionType.Xplaying) {\n\n            if (_new.positionType() == TicTacToeState.PositionType.Oplaying) {\n\n                validateXplayingToOplaying(_old, _new);\n\n                return true;\n\n            } else if (_new.positionType() == TicTacToeState.PositionType.Victory) {\n\n                validateXplayingToVictory(_old, _new);\n\n                return true;\n\n            } else if (_new.positionType() == TicTacToeState.PositionType.Rest) {\n\n                validateXplayingToRest(_old, _new);\n\n                return true;\n              }\n        } else if (_old.positionType() == TicTacToeState.PositionType.Oplaying) {\n\n            if (_new.positionType() == TicTacToeState.PositionType.Xplaying) {\n\n                validateOplayingToXplaying(_old, _new);\n\n                return true;\n\n            } else if (_new.positionType() == TicTacToeState.PositionType.Victory) {\n\n                validateOplayingToVictory(_old, _new);\n\n                return true;\n\n            } else if (_new.positionType() == TicTacToeState.PositionType.Draw) {\n\n                validateOplayingToDraw(_old, _new);\n\n                return true;\n            \n            }\n        } else if (_old.positionType() == TicTacToeState.PositionType.Victory) {\n\n            if (_new.positionType() == TicTacToeState.PositionType.Rest) {\n\n                validateVictoryToRest(_old, _new);\n\n                return true;\n\n            } else if (_new.positionType() == TicTacToeState.PositionType.Xplaying) {\n\n                validateVictoryToXplaying(_old, _new);\n\n                return true;\n\n            }\n        } else if (_old.positionType() == TicTacToeState.PositionType.Draw) {\n\n            if (_new.positionType() == TicTacToeState.PositionType.Rest) {\n\n                validateDrawToRest(_old, _new);\n\n                return true;\n\n            } else if (_new.positionType() == TicTacToeState.PositionType.Xplaying) {\n\n                validateDrawToXplaying(_old, _new);\n\n                return true;\n\n            }\n        } \n        revert(\"Could not match to a valid transition.\");\n        // return false;\n    }\n\n    // transition validations\n\n    function validateRestToXplaying(bytes _old, bytes _new) private pure {\n        require(_new.noughts() == 0, \" a test error message\");\n        require(TicTacToeHelpers.madeStrictlyOneMark(_new.crosses(),0)); // Xs moves first\n        require(_new.stake() == _old.stake());\n        if (State.indexOfMover(_new) == 0) { // mover is A\n            require(_new.aResolution() == _old.aResolution() + _new.stake());\n            require(_new.bResolution() == _old.bResolution() - _new.stake());\n        } else if (State.indexOfMover(_new) == 1) { // mover is B\n            require(_new.aResolution() == _old.aResolution() - _new.stake());\n            require(_new.bResolution() == _old.bResolution() + _new.stake());\n        }\n    }\n\n    function validateRestToConcluded(bytes _old, bytes _new) private pure {\n        require(_new.aResolution() == _old.aResolution());\n        require(_new.bResolution() == _old.bResolution());\n    }\n\n    function validateXplayingToOplaying(bytes _old, bytes _new) private pure {\n        require(_new.stake() == _old.stake());\n        require(TicTacToeHelpers.madeStrictlyOneMark(_new.noughts(), _old.noughts()));\n        require((_new.crosses() == _old.crosses()));   \n        if (State.indexOfMover(_new) == 0) { // mover is A\n            require(_new.aResolution() == _old.aResolution() + 2 * _new.stake()); \n            require(_new.bResolution() == _old.bResolution() - 2 * _new.stake());\n        } else if (State.indexOfMover(_new) == 1) { // mover is B\n            require(_new.aResolution() == _old.aResolution() - 2 * _new.stake());\n            require(_new.bResolution() == _old.bResolution() + 2 * _new.stake());\n            // note factor of 2 to swing fully to other player\n        } \n    }\n    \n    function validateXplayingToVictory(bytes _old, bytes _new) private pure {\n        require(TicTacToeHelpers.hasWon(_new.noughts()));\n        require(TicTacToeHelpers.madeStrictlyOneMark(_new.noughts(), _old.noughts()));\n        require((_new.crosses() == _old.crosses()));   \n        if (State.indexOfMover(_new) == 0) { // mover is A\n            require(_new.aResolution() == _old.aResolution() + 2 * _new.stake());\n            require(_new.bResolution() == _old.bResolution() - 2 * _new.stake());\n        } else if (State.indexOfMover(_new) == 1) { // mover is B\n            require(_new.aResolution() == _old.aResolution() - 2 * _new.stake());\n            require(_new.bResolution() == _old.bResolution() + 2 * _new.stake());\n        } // mover gets to claim stakes\n    } \n\n    function validateXplayingToRest(bytes _old, bytes _new) private pure {\n        require(_old.noughts() == 0); // don't allow this transition unless noughts has yet to make any marks\n        if (State.indexOfMover(_new) == 0) { // Mover is A\n            // revert balances\n            require(_new.aResolution() == _old.aResolution() + _old.stake());\n            require(_new.bResolution() == _old.bResolution() - _old.stake());\n        } else if (State.indexOfMover(_new) == 1) { // Mover is B\n            // revert balances\n            require(_new.aResolution() == _old.aResolution() - _old.stake());\n            require(_new.bResolution() == _old.bResolution() + _old.stake());\n        } \n    }\n\n    function validateOplayingToXplaying(bytes _old, bytes _new) private pure {\n        require(TicTacToeHelpers.madeStrictlyOneMark(_new.crosses(), _old.crosses()));\n        require((_new.noughts() == _old.noughts()));\n        if (State.indexOfMover(_new) == 0) { // mover is A\n            require(_new.aResolution() == _old.aResolution() + 2 * _new.stake()); // note extra factor of 2 to swing fully to other player\n            require(_new.bResolution() == _old.bResolution() - 2 * _new.stake());\n        } else if (State.indexOfMover(_new) == 1) { // mover is B\n            require(_new.aResolution() == _old.aResolution() - 2 * _new.stake());\n            require(_new.bResolution() == _old.bResolution() + 2 * _new.stake());\n        } // mover gets to claim stakes: note factor of 2 to swing fully to other player\n    }\n\n    function validateOplayingToVictory(bytes _old, bytes _new) private pure {\n        require(TicTacToeHelpers.hasWon(_new.crosses()));\n        require(TicTacToeHelpers.madeStrictlyOneMark(_new.crosses(), _old.crosses()));\n        require((_new.noughts() == _old.noughts()));   \n        if (State.indexOfMover(_new) == 0) { // mover is A\n            require(_new.aResolution() == _old.aResolution() + 2 * _new.stake());\n            require(_new.bResolution() == _old.bResolution() - 2 * _new.stake());\n        } else if (State.indexOfMover(_new) == 1) { // mover is B\n            require(_new.aResolution() == _old.aResolution() - 2 * _new.stake());\n            require(_new.bResolution() == _old.bResolution() + 2 * _new.stake());\n        } // mover gets to claim stakes: note factor of 2 to swing fully to other player\n    }\n\n    function validateOplayingToDraw(bytes _old, bytes _new) private pure {\n        require(TicTacToeHelpers.isDraw(_new.noughts(), _new.crosses())); // check if board full. \n        // crosses always plays first move and always plays the move that completes the board\n        if (State.indexOfMover(_new) == 0) {\n            require(_new.aResolution() == _old.aResolution() + 2 * _new.stake()); // no extra factor of 2, restoring to parity\n            require(_new.bResolution() == _old.bResolution() - 2 * _new.stake());\n        } else if (State.indexOfMover(_new) == 1) {\n            require(_new.aResolution() == _old.aResolution() - 2 * _new.stake());\n            require(_new.bResolution() == _old.bResolution() + 2 * _new.stake());\n        } // mover gets to restore parity to the winnings\n        require(TicTacToeHelpers.madeStrictlyOneMark(_new.crosses(), _old.crosses()));\n        require((_new.noughts() == _old.noughts()));\n    }\n\n    function validateVictoryToRest(bytes _old, bytes _new) private pure {\n        require(_new.aResolution() == _old.aResolution());\n        require(_new.bResolution() == _old.bResolution());\n    }\n\n    function validateDrawToRest(bytes _old, bytes _new) private pure {\n        require(_new.aResolution() == _old.aResolution());\n        require(_new.bResolution() == _old.bResolution());\n    }\n\n    function validateVictoryToXplaying(bytes _old, bytes _new) private pure {\n        require(_new.aResolution() == _old.aResolution());\n        require(_new.bResolution() == _old.bResolution());\n        require(_new.noughts() == 0);\n        require(TicTacToeHelpers.madeStrictlyOneMark(_new.crosses(),0));\n         // crosses always goes first. there is no _old.crosses, so set to zero here\n    }\n\n    function validateDrawToXplaying(bytes _old, bytes _new) private pure {\n        require(_new.aResolution() == _old.aResolution());\n        require(_new.bResolution() == _old.bResolution());\n        require(_new.noughts() == 0);\n        require(TicTacToeHelpers.madeStrictlyOneMark(_new.crosses(),0));\n         // crosses always goes first. there is no _old.crosses, so set to zero here\n    }\n\n}\n",
  "sourcePath": "/Users/georgeknee/magmo/TTT/contracts/TicTacToeGame.sol",
  "compiler": {
    "name": "solc",
    "version": "0.4.24+commit.e67f0147.Emscripten.clang"
  },
  "schemaVersion": "2.0.1",
  "updatedAt": "2019-01-09T16:10:59.661Z"
}