{
  "contractName": "TicTacToeHelpers",
  "abi": [
    {
      "constant": true,
      "inputs": [
        {
          "name": "_marks",
          "type": "uint16"
        }
      ],
      "name": "hasWon",
      "outputs": [
        {
          "name": "",
          "type": "bool"
        }
      ],
      "payable": false,
      "stateMutability": "pure",
      "type": "function"
    },
    {
      "constant": true,
      "inputs": [
        {
          "name": "_noughts",
          "type": "uint16"
        },
        {
          "name": "_crosses",
          "type": "uint16"
        }
      ],
      "name": "isDraw",
      "outputs": [
        {
          "name": "",
          "type": "bool"
        }
      ],
      "payable": false,
      "stateMutability": "pure",
      "type": "function"
    },
    {
      "constant": true,
      "inputs": [
        {
          "name": "_new_marks",
          "type": "uint16"
        },
        {
          "name": "_old_marks",
          "type": "uint16"
        }
      ],
      "name": "madeStrictlyOneMark",
      "outputs": [
        {
          "name": "",
          "type": "bool"
        }
      ],
      "payable": false,
      "stateMutability": "pure",
      "type": "function"
    },
    {
      "constant": true,
      "inputs": [
        {
          "name": "_noughts",
          "type": "uint16"
        },
        {
          "name": "_crosses",
          "type": "uint16"
        }
      ],
      "name": "areDisjoint",
      "outputs": [
        {
          "name": "",
          "type": "bool"
        }
      ],
      "payable": false,
      "stateMutability": "pure",
      "type": "function"
    },
    {
      "constant": true,
      "inputs": [
        {
          "name": "_marks",
          "type": "uint16"
        }
      ],
      "name": "popCount",
      "outputs": [
        {
          "name": "",
          "type": "uint8"
        }
      ],
      "payable": false,
      "stateMutability": "pure",
      "type": "function"
    }
  ],
  "bytecode": "0x6102e4610030600b82828239805160001a6073146000811461002057610022565bfe5b5030600052607381538281f30073000000000000000000000000000000000000000030146080604052600436106100835763ffffffff7c01000000000000000000000000000000000000000000000000000000006000350416630fe61fb581146100885780634b45b73f146100b157806368f5b294146100c0578063b8655772146100d5578063f94d075a146100fa575b600080fd5b61009d61ffff6004358116906024351661010f565b604080519115158252519081900360200190f35b61009d61ffff600435166101d3565b61009d61ffff6004358116906024351661023f565b6100e461ffff6004351661025f565b6040805160ff9092168252519081900360200190f35b61009d61ffff6004358116906024351661029e565b600080805b60098261ffff1610156101ad57600161ffff83811660020a908716041615801561014c5750600161ffff83811660020a908616048116145b1561015a57600092506101cb565b600161ffff83811660020a9087160481161480156101855750600161ffff83811660020a9086160416155b156101a2576001811515141561019e57600092506101cb565b5060015b600190910190610114565b8361ffff168561ffff1614156101c657600092506101cb565b600192505b505092915050565b60006101c082811614806101e957506038828116145b806101f657506007828116145b806102045750610124828116145b8061021157506092828116145b8061021e57506049828116145b8061022c5750610111828116145b8061023957506054828116145b92915050565b600061ffff83831616151561025657506001610239565b50600092915050565b600080805b60098261ffff16101561029757600161ffff83811660020a908616048116141561028c576001015b600190910190610264565b9392505050565b600082821861ffff166101ff1415610256575060016102395600a165627a7a723058200f7d37c3c8de25c70095ecf4c5cbdd7b6bb8852ccbfdfd4c2858dc3ffc1ff7aa0029",
  "source": "pragma solidity ^0.4.18;\n\nlibrary TicTacToeHelpers {\n    // helper functions \n    \n    // Unravelling of grid is as follows:\n    // \n    //      0  |  1  |  2  \n    //   +-----------------+\n    //      3  |  4  |  5  \n    //   +-----------------+\n    //      6  |  7  |  8  \n    // \n    // The binary representation A single mark is 2**(8-index).\n    //\n    // e.g. noughts = 000000001\n    //      crosses = 010000000\n    // \n    // corresponds to \n    //\n    //         |  X  |     \n    //   +-----------------+\n    //         |     |     \n    //   +-----------------+\n    //         |      |  0  \n    // \n    //\n    uint16 constant topRow = 448; /*  0b111000000 = 448 mask for win @ row 1 */\n    uint16 constant midRow =  56; /*  0b000111000 =  56 mask for win @ row 2 */\n    uint16 constant botRow =   7; /*  0b000000111 =   7 mask for win @ row 3 */\n    uint16 constant lefCol = 292; /*  0b100100100 = 292 mask for win @ col 1 */\n    uint16 constant midCol = 146; /*  0b010010010 = 146 mask for win @ col 2 */\n    uint16 constant rigCol =  73; /*  0b001001001 =  73 mask for win @ col 3 */\n    uint16 constant dhDiag = 273; /*  0b100010001 = 273 mask for win @ downhill diag */\n    uint16 constant uhDiag =  84; /*  0b001010100 =  84 mask for win @ uphill diag */\n    //\n    uint16 constant fullBd = 511; /* 0b111111111 = 511 full board */\n\n    function hasWon(uint16 _marks) public pure returns (bool) {\n        return (\n            ((_marks & topRow) == topRow) ||\n            ((_marks & midRow) == midRow) ||\n            ((_marks & botRow) == botRow) ||\n            ((_marks & lefCol) == lefCol) ||\n            ((_marks & midCol) == midCol) ||\n            ((_marks & rigCol) == rigCol) ||\n            ((_marks & dhDiag) == dhDiag) ||\n            ((_marks & uhDiag) == uhDiag) \n            );\n    }\n\n    function isDraw(uint16 _noughts, uint16 _crosses) public pure returns (bool) {\n        if((_noughts ^ _crosses) == fullBd) { \n            return true; // using XOR. Note that a draw could include a winning position that is unnoticed / unclaimed\n        }\n        else return false;\n    }\n\n    function madeStrictlyOneMark(uint16 _new_marks, uint16 _old_marks) public pure returns (bool){\n        uint16 i;\n        bool already_marked = false;\n        for (i = 0; i < 9; i++){\n            if ((_new_marks >> i)%2 == 0 && (_old_marks >> i)%2 == 1){\n                return false; // erased a mark\n            } \n            else if ((_new_marks >> i)%2 == 1 && (_old_marks >> i)%2 == 0){\n                if (already_marked == true){\n                    return false; // made two or more marks\n                }\n                already_marked = true; // made at least one mark\n            }\n        }\n        if (_new_marks == _old_marks) {return false;} // do not allow a non-move\n        return true;\n    }\n\n    function areDisjoint(uint16 _noughts, uint16 _crosses) public pure returns (bool) {\n        if((_noughts & _crosses) == 0){\n            return true;\n        }\n        else return false;\n    }\n\n    function popCount(uint16 _marks) public pure returns (uint8) {\n        uint16 i;\n        uint8  count;\n        for (i = 0; i < 9; i++){\n            if ((_marks >> i)%2 == 1 ){\n                count++; // erased a mark\n            } \n        }\n        return count;\n    }\n}\n",
  "sourcePath": "/Users/georgeknee/magmo/TTT/contracts/TicTacToeHelpers.sol",
  "compiler": {
    "name": "solc",
    "version": "0.4.24+commit.e67f0147.Emscripten.clang"
  },
  "schemaVersion": "2.0.1",
  "updatedAt": "2019-01-09T16:10:59.640Z"
}